S01700004763634170706C69636174696F6E322E737265635A
S11300000C942A000C9434000C9434000C943400A6
S11300100C9434000C9434000C9434000C9434008C
S11300200C9434000C9434000C9434000C9434007C
S11300300C9434000C9434000C9434000C9434006C
S11300400C9434000C9434000C9434000C9434005C
S11300500C94340011241FBECFE5D8E0DEBFCDBF21
S11300600E942C010C94CD010C94000064E070E01B
S113007038E021E092E084E075C032BB28BBAFE3F6
S1130080EDE0F3E0A150E040F040E1F700C00000F3
S113009092BB88BBAFE3EDE0F3E0A150E040F04059
S11300A0E1F700C0000082BB98BBAFE3EDE0F3E0F2
S11300B0A150E040F040E1F700C0000022BB38BB93
S11300C0AFE3EDE0F3E0A150E040F040E1F700C021
S11300D000004150510989F64FE35DE0A3E041502F
S11300E05040A040E1F700C0000042E050E038BBBF
S11300F032BBEFE3FDE0A3E0E150F040A040E1F7C4
S113010000C0000098BB92BBEFE3FDE0A3E0E15028
S1130110F040A040E1F700C0000088BB82BBEFE3E1
S1130120FDE0A3E0E150F040A040E1F700C0000092
S113013028BB22BBEFE3FDE0A3E0E150F040A04088
S1130140E1F700C000004150510989F6EFE3FDE0FA
S113015043E0E150F0404040E1F700C0000061504E
S1130160710919F042E050E088CF80E190E051E05D
S113017044E032E028E052BB6FE37DE0A3E061504D
S11301807040A040E1F700C0000042BBEFE3FDE097
S113019063E0E150F0406040E1F700C0000032BB92
S11301A07FE3ADE0E3E07150A040E040E1F700C040
S11301B0000022BBFFE36DE073E0F150604070404B
S11301C0E1F700C000000197B1F608958BBB959844
S11301D09698979A87EA91E60197F1F700C0000094
S11301E09798089588E30E94E60089EF90E00197CC
S11301F0F1F700C0000081E00E94E60089EF90E082
S11302000197F1F700C0000082E00E94E60089EF48
S113021090E00197F1F700C0000086E00E94E6003C
S113022089EF90E00197F1F700C0000080E80E9498
S1130230E60089EF90E00197F1F700C0000008950F
S11302408BBB959A9698979A87EA91E60197F1F76E
S113025000C00000979808958FEF87BB81BB14BA44
S11302608ABB80EE81BB83B3813029F40E943600BF
S113027083B38130D9F30E94F20089EF90E00197B3
S1130280F1F700C000008CE00E94E60083EC99E0E6
S11302900197F1F700C000008DE20E94200181EE79
S11302A094E00197F1F700C000008DE20E94200164
S11302B081EE94E00197F1F700C0000080E50E9410
S11302C0200181EE94E00197F1F700C000008CE476
S11302D00E94200181EE94E00197F1F700C0000034
S11302E085E40E94200181EE94E00197F1F700C0BB
S11302F0000081E40E94200181EE94E00197F1F76F
S113030000C0000083E50E94200181EE94E0019783
S1130310F1F700C0000085E40E94200181EE94E022
S11303200197F1F700C0000080E20E94200181EEF5
S113033094E00197F1F700C0000087E50E942001D6
S113034081EE94E00197F1F700C0000081E40E947F
S1130350200181EE94E00197F1F700C0000089E4E8
S11303600E94200189EF90E00197F1F700C000009E
S113037084E50E94200181EE94E00197F1F700C02A
S113038000008EE00E94E60083EC99E00197F1F70B
S111039000C0000080E090E00895F894FFCFD4
S9030000FC
